{
  "contractName": "RealEstate",
  "abi": [
    {
      "inputs": [],
      "stateMutability": "nonpayable",
      "type": "constructor"
    },
    {
      "anonymous": false,
      "inputs": [
        {
          "indexed": false,
          "internalType": "address",
          "name": "_owner",
          "type": "address"
        },
        {
          "indexed": false,
          "internalType": "uint256",
          "name": "_id",
          "type": "uint256"
        }
      ],
      "name": "Add",
      "type": "event"
    },
    {
      "anonymous": false,
      "inputs": [
        {
          "indexed": true,
          "internalType": "address",
          "name": "_from",
          "type": "address"
        },
        {
          "indexed": true,
          "internalType": "address",
          "name": "_to",
          "type": "address"
        },
        {
          "indexed": false,
          "internalType": "uint256",
          "name": "_land",
          "type": "uint256"
        }
      ],
      "name": "Transfer",
      "type": "event"
    },
    {
      "inputs": [],
      "name": "admin",
      "outputs": [
        {
          "internalType": "address",
          "name": "",
          "type": "address"
        }
      ],
      "stateMutability": "view",
      "type": "function",
      "constant": true
    },
    {
      "inputs": [],
      "name": "propertyCounter",
      "outputs": [
        {
          "internalType": "uint256",
          "name": "",
          "type": "uint256"
        }
      ],
      "stateMutability": "view",
      "type": "function",
      "constant": true
    },
    {
      "inputs": [
        {
          "internalType": "string",
          "name": "_name",
          "type": "string"
        },
        {
          "internalType": "string",
          "name": "_location",
          "type": "string"
        },
        {
          "internalType": "uint256",
          "name": "_cost",
          "type": "uint256"
        }
      ],
      "name": "addProperty",
      "outputs": [],
      "stateMutability": "nonpayable",
      "type": "function"
    },
    {
      "inputs": [
        {
          "internalType": "address",
          "name": "_buyer",
          "type": "address"
        },
        {
          "internalType": "uint256",
          "name": "_id",
          "type": "uint256"
        }
      ],
      "name": "transferProperty",
      "outputs": [
        {
          "internalType": "bool",
          "name": "",
          "type": "bool"
        }
      ],
      "stateMutability": "nonpayable",
      "type": "function"
    },
    {
      "inputs": [
        {
          "internalType": "uint256",
          "name": "_id",
          "type": "uint256"
        }
      ],
      "name": "fetchProperty",
      "outputs": [
        {
          "internalType": "uint256",
          "name": "",
          "type": "uint256"
        },
        {
          "internalType": "string",
          "name": "",
          "type": "string"
        },
        {
          "internalType": "address",
          "name": "",
          "type": "address"
        },
        {
          "internalType": "string",
          "name": "",
          "type": "string"
        },
        {
          "internalType": "uint256",
          "name": "",
          "type": "uint256"
        }
      ],
      "stateMutability": "view",
      "type": "function",
      "constant": true
    }
  ],
  "bytecode": "0x608060405234801561001057600080fd5b5033600160006101000a81548173ffffffffffffffffffffffffffffffffffffffff021916908373ffffffffffffffffffffffffffffffffffffffff1602179055506000600281905550610d0c806100696000396000f3fe608060405234801561001057600080fd5b50600436106100575760003560e01c8063913a8e801461005c578063b49f7f4314610078578063d090e47e146100ac578063f644c318146100ca578063f851a440146100fa575b600080fd5b6100766004803603810190610071919061089f565b610118565b005b610092600480360381019061008d919061092a565b6102b5565b6040516100a3959493929190610a2f565b60405180910390f35b6100b4610483565b6040516100c19190610a90565b60405180910390f35b6100e460048036038101906100df9190610ad7565b610489565b6040516100f19190610b32565b60405180910390f35b6101026105bb565b60405161010f9190610b4d565b60405180910390f35b600160009054906101000a900473ffffffffffffffffffffffffffffffffffffffff1673ffffffffffffffffffffffffffffffffffffffff163373ffffffffffffffffffffffffffffffffffffffff161461017257600080fd5b6002600081548092919061018590610b97565b91905055506040518060a0016040528060025481526020018481526020013373ffffffffffffffffffffffffffffffffffffffff16815260200183815260200182815250600080600254815260200190815260200160002060008201518160000155602082015181600101908051906020019061020392919061066c565b5060408201518160020160006101000a81548173ffffffffffffffffffffffffffffffffffffffff021916908373ffffffffffffffffffffffffffffffffffffffff160217905550606082015181600301908051906020019061026792919061066c565b50608082015181600401559050507f2728c9d3205d667bbc0eefdfeda366261b4d021949630c047f3e5834b30611ab336002546040516102a8929190610be0565b60405180910390a1505050565b60006060600060606000806102c9876105e1565b9050600080888152602001908152602001600020600001546000808981526020019081526020016000206001016000808a815260200190815260200160002060020160009054906101000a900473ffffffffffffffffffffffffffffffffffffffff166000808b81526020019081526020016000206003016000808c81526020019081526020016000206004015483805461036390610c38565b80601f016020809104026020016040519081016040528092919081815260200182805461038f90610c38565b80156103dc5780601f106103b1576101008083540402835291602001916103dc565b820191906000526020600020905b8154815290600101906020018083116103bf57829003601f168201915b505050505093508180546103ef90610c38565b80601f016020809104026020016040519081016040528092919081815260200182805461041b90610c38565b80156104685780601f1061043d57610100808354040283529160200191610468565b820191906000526020600020905b81548152906001019060200180831161044b57829003601f168201915b50505050509150955095509550955095505091939590929450565b60025481565b600080600083815260200190815260200160002060020160009054906101000a900473ffffffffffffffffffffffffffffffffffffffff1673ffffffffffffffffffffffffffffffffffffffff163373ffffffffffffffffffffffffffffffffffffffff16146104f857600080fd5b8260008084815260200190815260200160002060020160006101000a81548173ffffffffffffffffffffffffffffffffffffffff021916908373ffffffffffffffffffffffffffffffffffffffff1602179055508273ffffffffffffffffffffffffffffffffffffffff163373ffffffffffffffffffffffffffffffffffffffff167fddf252ad1be2c89b69c2b068fc378daa952ba7f163c4a11628f55a4df523b3ef846040516105a99190610a90565b60405180910390a36001905092915050565b600160009054906101000a900473ffffffffffffffffffffffffffffffffffffffff1681565b600080600090505b600a81101561062b57826000808381526020019081526020016000206000015414156106185780915050610667565b808061062390610b97565b9150506105e9565b506040517f08c379a000000000000000000000000000000000000000000000000000000000815260040161065e90610cb6565b60405180910390fd5b919050565b82805461067890610c38565b90600052602060002090601f01602090048101928261069a57600085556106e1565b82601f106106b357805160ff19168380011785556106e1565b828001600101855582156106e1579182015b828111156106e05782518255916020019190600101906106c5565b5b5090506106ee91906106f2565b5090565b5b8082111561070b5760008160009055506001016106f3565b5090565b6000604051905090565b600080fd5b600080fd5b600080fd5b600080fd5b6000601f19601f8301169050919050565b7f4e487b7100000000000000000000000000000000000000000000000000000000600052604160045260246000fd5b6107768261072d565b810181811067ffffffffffffffff821117156107955761079461073e565b5b80604052505050565b60006107a861070f565b90506107b4828261076d565b919050565b600067ffffffffffffffff8211156107d4576107d361073e565b5b6107dd8261072d565b9050602081019050919050565b82818337600083830152505050565b600061080c610807846107b9565b61079e565b90508281526020810184848401111561082857610827610728565b5b6108338482856107ea565b509392505050565b600082601f8301126108505761084f610723565b5b81356108608482602086016107f9565b91505092915050565b6000819050919050565b61087c81610869565b811461088757600080fd5b50565b60008135905061089981610873565b92915050565b6000806000606084860312156108b8576108b7610719565b5b600084013567ffffffffffffffff8111156108d6576108d561071e565b5b6108e28682870161083b565b935050602084013567ffffffffffffffff8111156109035761090261071e565b5b61090f8682870161083b565b92505060406109208682870161088a565b9150509250925092565b6000602082840312156109405761093f610719565b5b600061094e8482850161088a565b91505092915050565b61096081610869565b82525050565b600081519050919050565b600082825260208201905092915050565b60005b838110156109a0578082015181840152602081019050610985565b838111156109af576000848401525b50505050565b60006109c082610966565b6109ca8185610971565b93506109da818560208601610982565b6109e38161072d565b840191505092915050565b600073ffffffffffffffffffffffffffffffffffffffff82169050919050565b6000610a19826109ee565b9050919050565b610a2981610a0e565b82525050565b600060a082019050610a446000830188610957565b8181036020830152610a5681876109b5565b9050610a656040830186610a20565b8181036060830152610a7781856109b5565b9050610a866080830184610957565b9695505050505050565b6000602082019050610aa56000830184610957565b92915050565b610ab481610a0e565b8114610abf57600080fd5b50565b600081359050610ad181610aab565b92915050565b60008060408385031215610aee57610aed610719565b5b6000610afc85828601610ac2565b9250506020610b0d8582860161088a565b9150509250929050565b60008115159050919050565b610b2c81610b17565b82525050565b6000602082019050610b476000830184610b23565b92915050565b6000602082019050610b626000830184610a20565b92915050565b7f4e487b7100000000000000000000000000000000000000000000000000000000600052601160045260246000fd5b6000610ba282610869565b91507fffffffffffffffffffffffffffffffffffffffffffffffffffffffffffffffff821415610bd557610bd4610b68565b5b600182019050919050565b6000604082019050610bf56000830185610a20565b610c026020830184610957565b9392505050565b7f4e487b7100000000000000000000000000000000000000000000000000000000600052602260045260246000fd5b60006002820490506001821680610c5057607f821691505b60208210811415610c6457610c63610c09565b5b50919050565b7f50726f706572747920646f6573206e6f74206578697374210000000000000000600082015250565b6000610ca0601883610971565b9150610cab82610c6a565b602082019050919050565b60006020820190508181036000830152610ccf81610c93565b905091905056fea2646970667358221220989acf14df5036b05d280836a73a713f49a993fe0682b6d0abc11f95439caf3e64736f6c634300080a0033",
  "immutableReferences": {},
  "source": "// SPDX-License-Identifier: MIT\r\npragma solidity ^0.8.10;\r\n\r\ncontract RealEstate {\r\n\r\n  //Object\r\n  struct Property {\r\n    uint id;\r\n    string name;\r\n    address owner;\r\n    string location;\r\n    uint cost;\r\n  }\r\n\r\n  //List of property\r\n  mapping (uint => Property) properties;\r\n\r\n  //Contract publisher\r\n  address public admin;\r\n\r\n  //Land ID Counters\r\n  uint public propertyCounter;\r\n\r\n  //constructor to initialize admin and Land Counter\r\n     constructor() {\r\n        admin = msg.sender;\r\n        propertyCounter = 0;\r\n    }\r\n\r\n  //modifier to verify sender is admin\r\n  modifier isAdmin() {\r\n    require(msg.sender == admin);\r\n    _;\r\n  }\r\n\r\n  //event for Property Addition\r\n  event Add(address _owner, uint _id);\r\n\r\n  //event for Property transfer\r\n  event Transfer(address indexed _from, address indexed _to, uint _land);\r\n\r\n  //Function for adding/registering new land Ownership | Can only be executed by Contract Admin\r\n  function addProperty(string memory _name, string memory _location, uint _cost) public isAdmin{\r\n    //Increase Property Counter by 1\r\n    propertyCounter++;\r\n    //Save New Property\r\n    properties[propertyCounter] = Property(propertyCounter, _name,msg.sender,_location,_cost);\r\n\r\n    //Notify about Property Creation\r\n    emit Add(msg.sender, propertyCounter);\r\n  }\r\n\r\n  //Function for transferring Property\r\n  function transferProperty(address _buyer, uint _id) public returns (bool) {\r\n    //Validate Sender is Property Owner\r\n    require(msg.sender == properties[_id].owner);\r\n\r\n    //Change Property Ownership\r\n    properties[_id].owner = _buyer;\r\n\r\n    //Notify transfer of Property Ownership\r\n    emit Transfer(msg.sender, _buyer, _id);\r\n\r\n    return true;\r\n  }\r\n\r\n  function fetchProperty(uint _id) public view returns (uint, string memory, address, string memory, uint) {\r\n    uint i = find(_id);\r\n    return (\r\n      properties[_id].id,\r\n      properties[_id].name,\r\n      properties[_id].owner,\r\n      properties[_id].location,\r\n      properties[_id].cost\r\n    );\r\n  }\r\n\r\n  function find(uint _id) view internal returns (uint) {\r\n    for(uint i = 0; i < 10; i++){\r\n      if(properties[i].id == _id){\r\n        return i;\r\n      }\r\n    }\r\n    revert('Property does not exist!');\r\n  }\r\n}\r\n",
  "sourcePath": "C:\\Users\\Hp\\Documents\\Projects\\real_estate\\contracts\\RealEstate.sol",
  "compiler": {
    "name": "solc",
    "version": "0.8.10+commit.fc410830.Emscripten.clang"
  },
  "schemaVersion": "3.4.3",
  "updatedAt": "2022-02-16T11:42:44.727Z",
  "networkType": "ethereum",
  "devdoc": {
    "kind": "dev",
    "methods": {},
    "version": 1
  },
  "userdoc": {
    "kind": "user",
    "methods": {},
    "version": 1
  }
}